:100000000C942A000C943F020C943F020C943F0283
:100010000C943F020C943F020C943F020C943F025C
:100020000C943F020C943F020C943F020C943F024C
:100030000C9450000C943F020C943F020C943F022D
:100040000C943F020C943F020C943F020C943F022C
:100050000C943F0211241FBECFE5D8E0DEBFCDBF18
:0C0060000E94EE010C943400F894FFCFD5
:10006C004C4544305F4F4E004C4544305F4F464644
:10007C00004C4544315F4F4E004C4544315F4F4678
:10008C0046004C4544325F4F4E004C4544325F4F66
:03009C00464600D5
:1000A0001F920F920FB60F9211241F932F933F931D
:1000B0004F935F936F937F938F939F93AF93BF9370
:1000C000EF93FF93CF93DF93CDB7DEB72997DEBFD2
:1000D000CDBF1FB11A3219F40E940002A1C0812FB6
:1000E0000E94C201113499F40E9443020E9400024E
:1000F0002CE630E040E088E0F901DE011196742F33
:100100000E942D02CE0101960E94100289C0113674
:10011000F1F40E9449020E94000224E730E040E02E
:1001200089E0F901DE011196742F0E942D02CE01A3
:1001300001960E9410022FEF8DE292E22150804042
:100140009040E1F700C000000E94000269C0163430
:1001500099F40E9445020E9400022DE730E040E041
:1001600088E0F901DE011196742F0E942D02CE0164
:1001700001960E94100254C01636F1F40E944B0200
:100180000E94000225E830E040E089E0F901DE014C
:100190001196742F0E942D02CE0101960E9410022A
:1001A0002FEF8DE292E2215080409040E1F700C0B5
:1001B00000000E94000234C0153599F40E944702E5
:1001C0000E9400022EE830E040E088E0F901DE0104
:1001D0001196742F0E942D02CE0101960E941002EA
:1001E0001FC01537E9F40E944D020E94000226E963
:1001F00030E040E089E0F901DE011196742F0E94A1
:100200002D02CE0101960E9410022FEF8DE292E2A4
:10021000215080409040E1F700C000000E940002A1
:1002200029960FB6F894DEBF0FBECDBFDF91CF91F8
:10023000FF91EF91BF91AF919F918F917F916F91BE
:100240005F914F913F912F911F910F900FBE0F9093
:040250001F9018954E
:1002540027B32E6027BBC2980497E1F48AB3806F5A
:100264008ABB80E20E941F028FE99FE00197F1F7A9
:1002740000C0000081E00E9496018CE00E9496017B
:100284009FEF21EE84E0915020408040E1F700C0D0
:10029400000008958FEF8ABB88E30E941F028FE954
:1002A4009FE00197F1F700C0000081E00E941F0267
:1002B4008CE00E941F029FEF21EE84E091502040C9
:0A02C4008040E1F700C0000008953B
:1002CE006F9A009739F0019739F46C9A87B3806B67
:1002DE0087BB02C06C98BE9A63307105A1F03CF4E6
:1002EE006130710561F06230710559F00895653025
:1002FE00710579F064F06630710571F00895689AB1
:10030E000895699A08958DB183608DB90895709A94
:0E031E000895709A689A0895709A699A0895E1
:10032C00C1989BB39F709BBB9BB3282F207F922BB4
:10033C009BBBC39A35E03A95F1F70000C398EFE107
:10034C00F3E03197F1F700C000009BB39F709BBBAB
:10035C002BB3F0E18F9FC0011124822B8BBBC39A6E
:10036C0035E03A95F1F70000C3988FE39FE10197D0
:08037C00F1F700C00000089534
:10038400C19A9BB39F709BBB9BB3282F207F922B5A
:100394009BBBC39A35E03A95F1F70000C398EFE1AF
:1003A400F3E03197F1F700C000009BB39F709BBB53
:1003B4002BB3F0E18F9FC0011124822B8BBBC39A16
:1003C40035E03A95F1F70000C3988FE39FE1019778
:0803D400F1F700C000000895DC
:1003DC0084E090E00E942A010E9400020E943A02EE
:1003EC0063E070E080E090E00E9467010E944102AF
:0403FC007894FFCF23
:100400008FE99FE00197F1F700C0000081E00E94B2
:1004100096018FE99FE00197F1F700C00000089571
:10042000CF93DF93EC018881882331F021960E94DD
:0E043000C20189918111FBCFDF91CF91089518
:10043E00C1988BBBC39A2FEF81EE94E02150804080
:0C044E009040E1F700C00000C398089542
:10045A00992777FD05C005900D920197E1F7089558
:0A046A0001900D920197E1F708954B
:0A04740084B3846884BB8B9A08955A
:04047E000C940000DA
:040482006E9A0895D1
:04048600AA9A089591
:04048A00AF9A089588
:04048E00939A0895A0
:04049200AA98089587
:04049600AF9808957E
:04049A009398089596
:00000001FF
